{
  "contractName": "Destructible",
  "abi": [
    {
      "anonymous": false,
      "inputs": [
        {
          "indexed": true,
          "internalType": "address",
          "name": "_currentOwner",
          "type": "address"
        },
        {
          "indexed": true,
          "internalType": "address",
          "name": "_newOwner",
          "type": "address"
        }
      ],
      "name": "LogOwnershipTransfered",
      "type": "event"
    },
    {
      "constant": false,
      "inputs": [],
      "name": "ownable",
      "outputs": [],
      "payable": false,
      "stateMutability": "nonpayable",
      "type": "function"
    },
    {
      "constant": true,
      "inputs": [],
      "name": "owner",
      "outputs": [
        {
          "internalType": "address payable",
          "name": "",
          "type": "address"
        }
      ],
      "payable": false,
      "stateMutability": "view",
      "type": "function"
    },
    {
      "constant": false,
      "inputs": [],
      "name": "destructible",
      "outputs": [],
      "payable": true,
      "stateMutability": "payable",
      "type": "function"
    },
    {
      "constant": false,
      "inputs": [],
      "name": "destroy",
      "outputs": [],
      "payable": false,
      "stateMutability": "nonpayable",
      "type": "function"
    },
    {
      "constant": false,
      "inputs": [
        {
          "internalType": "address payable",
          "name": "_recipient",
          "type": "address"
        }
      ],
      "name": "destroyAndSend",
      "outputs": [],
      "payable": false,
      "stateMutability": "nonpayable",
      "type": "function"
    }
  ],
  "bytecode": "0x608060405234801561001057600080fd5b506102d4806100206000396000f3fe60806040526004361061004a5760003560e01c80636a74ef0a1461004f57806383197ef0146100595780638da5cb5b14610070578063b38854be146100c7578063f5074f41146100de575b600080fd5b61005761012f565b005b34801561006557600080fd5b5061006e610131565b005b34801561007c57600080fd5b506100856101c5565b604051808273ffffffffffffffffffffffffffffffffffffffff1673ffffffffffffffffffffffffffffffffffffffff16815260200191505060405180910390f35b3480156100d357600080fd5b506100dc6101eb565b005b3480156100ea57600080fd5b5061012d6004803603602081101561010157600080fd5b81019080803573ffffffffffffffffffffffffffffffffffffffff16906020019092919050505061022d565b005b565b6000809054906101000a900473ffffffffffffffffffffffffffffffffffffffff1673ffffffffffffffffffffffffffffffffffffffff163373ffffffffffffffffffffffffffffffffffffffff161461018a57600080fd5b600160009054906101000a900473ffffffffffffffffffffffffffffffffffffffff1673ffffffffffffffffffffffffffffffffffffffff16ff5b600160009054906101000a900473ffffffffffffffffffffffffffffffffffffffff1681565b336000806101000a81548173ffffffffffffffffffffffffffffffffffffffff021916908373ffffffffffffffffffffffffffffffffffffffff160217905550565b6000809054906101000a900473ffffffffffffffffffffffffffffffffffffffff1673ffffffffffffffffffffffffffffffffffffffff163373ffffffffffffffffffffffffffffffffffffffff161461028657600080fd5b8073ffffffffffffffffffffffffffffffffffffffff16fffea265627a7a723158207203d2963982012e62c70d57099181c0bb3b05a286321a6b6e24a5e1f34fce7f64736f6c63430005100032",
  "source": "pragma solidity ^0.5.16;\n\nimport \"./Ownable.sol\";\n\ncontract Destructible is Ownable {\n    function destructible() public payable {}\n\n    address payable public owner;\n\n    function destroy() public onlyOwner {\n        selfdestruct(owner);\n    }\n\n    function destroyAndSend(address payable _recipient) public onlyOwner {\n        selfdestruct(_recipient);\n    }\n}\n",
  "sourcePath": "D:\\Github\\BlockChain\\p2p-LendingBlockChain\\p2p-lending-master\\smart-contracts\\contracts\\common\\Destructible.sol",
  "compiler": {
    "name": "solc",
    "version": "0.5.16+commit.9c3226ce.Emscripten.clang"
  },
  "schemaVersion": "3.4.13",
  "updatedAt": "2023-04-18T17:31:00.775Z",
  "networkType": "ethereum",
  "devdoc": {
    "methods": {}
  },
  "userdoc": {
    "methods": {}
  }
}