{
  "contractName": "Ownable",
  "abi": [
    {
      "anonymous": false,
      "inputs": [
        {
          "indexed": true,
          "internalType": "address",
          "name": "_currentOwner",
          "type": "address"
        },
        {
          "indexed": true,
          "internalType": "address",
          "name": "_newOwner",
          "type": "address"
        }
      ],
      "name": "LogOwnershipTransfered",
      "type": "event"
    },
    {
      "constant": true,
      "inputs": [],
      "name": "owner",
      "outputs": [
        {
          "internalType": "address",
          "name": "",
          "type": "address"
        }
      ],
      "payable": false,
      "stateMutability": "view",
      "type": "function"
    },
    {
      "constant": false,
      "inputs": [],
      "name": "ownable",
      "outputs": [],
      "payable": false,
      "stateMutability": "nonpayable",
      "type": "function"
    }
  ],
  "bytecode": "0x608060405234801561001057600080fd5b50610123806100206000396000f3fe6080604052348015600f57600080fd5b506004361060325760003560e01c80638da5cb5b146037578063b38854be14607f575b600080fd5b603d6087565b604051808273ffffffffffffffffffffffffffffffffffffffff1673ffffffffffffffffffffffffffffffffffffffff16815260200191505060405180910390f35b608560ac565b005b6000809054906101000a900473ffffffffffffffffffffffffffffffffffffffff1681565b336000806101000a81548173ffffffffffffffffffffffffffffffffffffffff021916908373ffffffffffffffffffffffffffffffffffffffff16021790555056fea265627a7a72315820cd33bb698a857bae135d547991b974f32e0e17639f535f77490abe83ff03ab9964736f6c63430005100032",
  "source": "pragma solidity ^0.5.16;\n\ncontract Ownable {\n    address public owner;\n\n    event LogOwnershipTransfered(\n        address indexed _currentOwner,\n        address indexed _newOwner\n    );\n\n    modifier onlyOwner() {\n        require(msg.sender == owner);\n        _;\n    }\n\n    function ownable() public {\n        owner = msg.sender;\n    }\n\n    // @dev - The ownership shouldn't be transferrable. Otherwise it will mess up the members logic.\n    /* function transferOwnership(address _newOwner) public onlyOwner {\n         owner = _newOwner;\n         LogOwnershipTransfered(msg.sender, _newOwner);\n     } */\n}\n",
  "sourcePath": "D:\\Github\\BlockChain\\p2p-LendingBlockChain\\p2p-lending-master\\smart-contracts\\contracts\\common\\Ownable.sol",
  "compiler": {
    "name": "solc",
    "version": "0.5.16+commit.9c3226ce.Emscripten.clang"
  },
  "schemaVersion": "3.4.13",
  "updatedAt": "2023-04-18T17:31:00.779Z",
  "networkType": "ethereum",
  "devdoc": {
    "methods": {}
  },
  "userdoc": {
    "methods": {}
  }
}