{
  "contractName": "PeerToPeerLending",
  "abi": [
    {
      "anonymous": false,
      "inputs": [
        {
          "indexed": true,
          "internalType": "address",
          "name": "_address",
          "type": "address"
        },
        {
          "indexed": true,
          "internalType": "bool",
          "name": "active",
          "type": "bool"
        },
        {
          "indexed": true,
          "internalType": "uint256",
          "name": "timestamp",
          "type": "uint256"
        }
      ],
      "name": "LogCreditActiveChanged",
      "type": "event"
    },
    {
      "anonymous": false,
      "inputs": [
        {
          "indexed": true,
          "internalType": "address",
          "name": "_address",
          "type": "address"
        },
        {
          "indexed": true,
          "internalType": "address",
          "name": "_borrower",
          "type": "address"
        },
        {
          "indexed": true,
          "internalType": "uint256",
          "name": "timestamp",
          "type": "uint256"
        }
      ],
      "name": "LogCreditCreated",
      "type": "event"
    },
    {
      "anonymous": false,
      "inputs": [
        {
          "indexed": true,
          "internalType": "address",
          "name": "_address",
          "type": "address"
        },
        {
          "indexed": true,
          "internalType": "enum Credit.State",
          "name": "state",
          "type": "uint8"
        },
        {
          "indexed": true,
          "internalType": "uint256",
          "name": "timestamp",
          "type": "uint256"
        }
      ],
      "name": "LogCreditStateChanged",
      "type": "event"
    },
    {
      "anonymous": false,
      "inputs": [
        {
          "indexed": true,
          "internalType": "address",
          "name": "_currentOwner",
          "type": "address"
        },
        {
          "indexed": true,
          "internalType": "address",
          "name": "_newOwner",
          "type": "address"
        }
      ],
      "name": "LogOwnershipTransfered",
      "type": "event"
    },
    {
      "anonymous": false,
      "inputs": [
        {
          "indexed": true,
          "internalType": "address",
          "name": "_address",
          "type": "address"
        },
        {
          "indexed": false,
          "internalType": "bool",
          "name": "fraudStatus",
          "type": "bool"
        },
        {
          "indexed": false,
          "internalType": "uint256",
          "name": "timestamp",
          "type": "uint256"
        }
      ],
      "name": "LogUserSetFraud",
      "type": "event"
    },
    {
      "constant": true,
      "inputs": [
        {
          "internalType": "uint256",
          "name": "",
          "type": "uint256"
        }
      ],
      "name": "credits",
      "outputs": [
        {
          "internalType": "address",
          "name": "",
          "type": "address"
        }
      ],
      "payable": false,
      "stateMutability": "view",
      "type": "function"
    },
    {
      "constant": false,
      "inputs": [],
      "name": "destroy",
      "outputs": [],
      "payable": false,
      "stateMutability": "nonpayable",
      "type": "function"
    },
    {
      "constant": false,
      "inputs": [
        {
          "internalType": "address payable",
          "name": "_recipient",
          "type": "address"
        }
      ],
      "name": "destroyAndSend",
      "outputs": [],
      "payable": false,
      "stateMutability": "nonpayable",
      "type": "function"
    },
    {
      "constant": false,
      "inputs": [],
      "name": "destructible",
      "outputs": [],
      "payable": true,
      "stateMutability": "payable",
      "type": "function"
    },
    {
      "constant": false,
      "inputs": [],
      "name": "ownable",
      "outputs": [],
      "payable": false,
      "stateMutability": "nonpayable",
      "type": "function"
    },
    {
      "constant": true,
      "inputs": [],
      "name": "owner",
      "outputs": [
        {
          "internalType": "address payable",
          "name": "",
          "type": "address"
        }
      ],
      "payable": false,
      "stateMutability": "view",
      "type": "function"
    },
    {
      "constant": true,
      "inputs": [
        {
          "internalType": "address",
          "name": "",
          "type": "address"
        }
      ],
      "name": "users",
      "outputs": [
        {
          "internalType": "bool",
          "name": "credited",
          "type": "bool"
        },
        {
          "internalType": "address",
          "name": "activeCredit",
          "type": "address"
        },
        {
          "internalType": "bool",
          "name": "fraudStatus",
          "type": "bool"
        }
      ],
      "payable": false,
      "stateMutability": "view",
      "type": "function"
    },
    {
      "constant": false,
      "inputs": [],
      "name": "peerToPeerLending",
      "outputs": [],
      "payable": false,
      "stateMutability": "nonpayable",
      "type": "function"
    },
    {
      "constant": false,
      "inputs": [
        {
          "internalType": "uint256",
          "name": "requestedAmount",
          "type": "uint256"
        },
        {
          "internalType": "uint256",
          "name": "repaymentsCount",
          "type": "uint256"
        },
        {
          "internalType": "uint256",
          "name": "interest",
          "type": "uint256"
        },
        {
          "internalType": "bytes32",
          "name": "creditDescription",
          "type": "bytes32"
        }
      ],
      "name": "applyForCredit",
      "outputs": [
        {
          "internalType": "address",
          "name": "_credit",
          "type": "address"
        }
      ],
      "payable": false,
      "stateMutability": "nonpayable",
      "type": "function"
    },
    {
      "constant": true,
      "inputs": [],
      "name": "getCredits",
      "outputs": [
        {
          "internalType": "address[]",
          "name": "",
          "type": "address[]"
        }
      ],
      "payable": false,
      "stateMutability": "view",
      "type": "function"
    },
    {
      "constant": true,
      "inputs": [],
      "name": "getUserCredits",
      "outputs": [
        {
          "internalType": "address[]",
          "name": "",
          "type": "address[]"
        }
      ],
      "payable": false,
      "stateMutability": "view",
      "type": "function"
    },
    {
      "constant": false,
      "inputs": [
        {
          "internalType": "address",
          "name": "_borrower",
          "type": "address"
        }
      ],
      "name": "setFraudStatus",
      "outputs": [
        {
          "internalType": "bool",
          "name": "",
          "type": "bool"
        }
      ],
      "payable": false,
      "stateMutability": "nonpayable",
      "type": "function"
    },
    {
      "constant": false,
      "inputs": [
        {
          "internalType": "contract Credit",
          "name": "_credit",
          "type": "address"
        }
      ],
      "name": "changeCreditState",
      "outputs": [],
      "payable": false,
      "stateMutability": "nonpayable",
      "type": "function"
    },
    {
      "constant": false,
      "inputs": [
        {
          "internalType": "contract Credit",
          "name": "_credit",
          "type": "address"
        },
        {
          "internalType": "enum Credit.State",
          "name": "state",
          "type": "uint8"
        }
      ],
      "name": "changeCreditState",
      "outputs": [],
      "payable": false,
      "stateMutability": "nonpayable",
      "type": "function"
    }
  ],
  "bytecode": "0x608060405234801561001057600080fd5b50612ed3806100206000396000f3fe6080604052600436106100dd5760003560e01c80638da5cb5b1161007f578063bb9e424711610059578063bb9e4247146103d3578063ebb5d8ed1461043c578063f5074f41146104d5578063fa838e5414610526576100dd565b80638da5cb5b146102be578063a87430ba14610315578063b38854be146103bc576100dd565b806361ef0446116100bb57806361ef04461461021a5780636a74ef0a14610231578063823a71af1461023b57806383197ef0146102a7576100dd565b8063036a1c22146100e25780632092cb331461015d57806359658c48146101c9575b600080fd5b3480156100ee57600080fd5b5061011b6004803603602081101561010557600080fd5b8101908080359060200190929190505050610584565b604051808273ffffffffffffffffffffffffffffffffffffffff1673ffffffffffffffffffffffffffffffffffffffff16815260200191505060405180910390f35b34801561016957600080fd5b506101726105c0565b6040518080602001828103825283818151815260200191508051906020019060200280838360005b838110156101b557808201518184015260208101905061019a565b505050509050019250505060405180910390f35b3480156101d557600080fd5b50610218600480360360208110156101ec57600080fd5b81019080803573ffffffffffffffffffffffffffffffffffffffff16906020019092919050505061068e565b005b34801561022657600080fd5b5061022f6107bf565b005b6102396107c1565b005b34801561024757600080fd5b506102506107c3565b6040518080602001828103825283818151815260200191508051906020019060200280838360005b83811015610293578082015181840152602081019050610278565b505050509050019250505060405180910390f35b3480156102b357600080fd5b506102bc610851565b005b3480156102ca57600080fd5b506102d36108e5565b604051808273ffffffffffffffffffffffffffffffffffffffff1673ffffffffffffffffffffffffffffffffffffffff16815260200191505060405180910390f35b34801561032157600080fd5b506103646004803603602081101561033857600080fd5b81019080803573ffffffffffffffffffffffffffffffffffffffff16906020019092919050505061090b565b60405180841515151581526020018373ffffffffffffffffffffffffffffffffffffffff1673ffffffffffffffffffffffffffffffffffffffff16815260200182151515158152602001935050505060405180910390f35b3480156103c857600080fd5b506103d161096f565b005b3480156103df57600080fd5b50610422600480360360208110156103f657600080fd5b81019080803573ffffffffffffffffffffffffffffffffffffffff1690602001909291905050506109b1565b604051808215151515815260200191505060405180910390f35b34801561044857600080fd5b506104936004803603608081101561045f57600080fd5b8101908080359060200190929190803590602001909291908035906020019092919080359060200190929190505050610b0e565b604051808273ffffffffffffffffffffffffffffffffffffffff1673ffffffffffffffffffffffffffffffffffffffff16815260200191505060405180910390f35b3480156104e157600080fd5b50610524600480360360208110156104f857600080fd5b81019080803573ffffffffffffffffffffffffffffffffffffffff169060200190929190505050610f66565b005b34801561053257600080fd5b506105826004803603604081101561054957600080fd5b81019080803573ffffffffffffffffffffffffffffffffffffffff169060200190929190803560ff169060200190929190505050610fd8565b005b6003818154811061059157fe5b906000526020600020016000915054906101000a900473ffffffffffffffffffffffffffffffffffffffff1681565b6060600260003373ffffffffffffffffffffffffffffffffffffffff1673ffffffffffffffffffffffffffffffffffffffff16815260200190815260200160002060010180548060200260200160405190810160405280929190818152602001828054801561068457602002820191906000526020600020905b8160009054906101000a900473ffffffffffffffffffffffffffffffffffffffff1673ffffffffffffffffffffffffffffffffffffffff168152602001906001019080831161063a575b5050505050905090565b6000809054906101000a900473ffffffffffffffffffffffffffffffffffffffff1673ffffffffffffffffffffffffffffffffffffffff163373ffffffffffffffffffffffffffffffffffffffff16146106e757600080fd5b600081905060008173ffffffffffffffffffffffffffffffffffffffff166329c68dc16040518163ffffffff1660e01b8152600401602060405180830381600087803b15801561073657600080fd5b505af115801561074a573d6000803e3d6000fd5b505050506040513d602081101561076057600080fd5b81019080805190602001909291905050509050428115158373ffffffffffffffffffffffffffffffffffffffff167f25270acf0eab637903a9cd906e32d2ac17ce44db6c743ba5812f2924e84ff8d660405160405180910390a4505050565b565b565b6060600380548060200260200160405190810160405280929190818152602001828054801561084757602002820191906000526020600020905b8160009054906101000a900473ffffffffffffffffffffffffffffffffffffffff1673ffffffffffffffffffffffffffffffffffffffff16815260200190600101908083116107fd575b5050505050905090565b6000809054906101000a900473ffffffffffffffffffffffffffffffffffffffff1673ffffffffffffffffffffffffffffffffffffffff163373ffffffffffffffffffffffffffffffffffffffff16146108aa57600080fd5b600160009054906101000a900473ffffffffffffffffffffffffffffffffffffffff1673ffffffffffffffffffffffffffffffffffffffff16ff5b600160009054906101000a900473ffffffffffffffffffffffffffffffffffffffff1681565b60026020528060005260406000206000915090508060000160009054906101000a900460ff16908060000160019054906101000a900473ffffffffffffffffffffffffffffffffffffffff16908060000160159054906101000a900460ff16905083565b336000806101000a81548173ffffffffffffffffffffffffffffffffffffffff021916908373ffffffffffffffffffffffffffffffffffffffff160217905550565b60006001600260008473ffffffffffffffffffffffffffffffffffffffff1673ffffffffffffffffffffffffffffffffffffffff16815260200190815260200160002060000160156101000a81548160ff0219169083151502179055508173ffffffffffffffffffffffffffffffffffffffff167fbafb199a9909a7be73ceeaf6193dc9ea119ef469120d998d5f550140c0b13b54600260008573ffffffffffffffffffffffffffffffffffffffff1673ffffffffffffffffffffffffffffffffffffffff16815260200190815260200160002060000160159054906101000a900460ff164260405180831515151581526020018281526020019250505060405180910390a2600260008373ffffffffffffffffffffffffffffffffffffffff1673ffffffffffffffffffffffffffffffffffffffff16815260200190815260200160002060000160159054906101000a900460ff169050919050565b6000801515600260003373ffffffffffffffffffffffffffffffffffffffff1673ffffffffffffffffffffffffffffffffffffffff16815260200190815260200160002060000160009054906101000a900460ff16151514610b6f57600080fd5b60001515600260003373ffffffffffffffffffffffffffffffffffffffff1673ffffffffffffffffffffffffffffffffffffffff16815260200190815260200160002060000160159054906101000a900460ff16151514610bcf57600080fd5b600073ffffffffffffffffffffffffffffffffffffffff16600260003373ffffffffffffffffffffffffffffffffffffffff1673ffffffffffffffffffffffffffffffffffffffff16815260200190815260200160002060000160019054906101000a900473ffffffffffffffffffffffffffffffffffffffff1673ffffffffffffffffffffffffffffffffffffffff1614610c6757fe5b6001600260003373ffffffffffffffffffffffffffffffffffffffff1673ffffffffffffffffffffffffffffffffffffffff16815260200190815260200160002060000160006101000a81548160ff0219169083151502179055506000604051610cd090611128565b604051809103906000f080158015610cec573d6000803e3d6000fd5b5090508073ffffffffffffffffffffffffffffffffffffffff1663faacf3c4878787876040518563ffffffff1660e01b815260040180858152602001848152602001838152602001828152602001945050505050600060405180830381600087803b158015610d5a57600080fd5b505af1158015610d6e573d6000803e3d6000fd5b5050505080600260003373ffffffffffffffffffffffffffffffffffffffff1673ffffffffffffffffffffffffffffffffffffffff16815260200190815260200160002060000160016101000a81548173ffffffffffffffffffffffffffffffffffffffff021916908373ffffffffffffffffffffffffffffffffffffffff16021790555060038190806001815401808255809150509060018203906000526020600020016000909192909190916101000a81548173ffffffffffffffffffffffffffffffffffffffff021916908373ffffffffffffffffffffffffffffffffffffffff16021790555050600260003373ffffffffffffffffffffffffffffffffffffffff1673ffffffffffffffffffffffffffffffffffffffff1681526020019081526020016000206001018190806001815401808255809150509060018203906000526020600020016000909192909190916101000a81548173ffffffffffffffffffffffffffffffffffffffff021916908373ffffffffffffffffffffffffffffffffffffffff16021790555050423373ffffffffffffffffffffffffffffffffffffffff168273ffffffffffffffffffffffffffffffffffffffff167fa0c75b76492543c8eafdc7e35272287bd6f229dcf0f6c22429343044718c510860405160405180910390a480915050949350505050565b6000809054906101000a900473ffffffffffffffffffffffffffffffffffffffff1673ffffffffffffffffffffffffffffffffffffffff163373ffffffffffffffffffffffffffffffffffffffff1614610fbf57600080fd5b8073ffffffffffffffffffffffffffffffffffffffff16ff5b6000809054906101000a900473ffffffffffffffffffffffffffffffffffffffff1673ffffffffffffffffffffffffffffffffffffffff163373ffffffffffffffffffffffffffffffffffffffff161461103157600080fd5b60008290508073ffffffffffffffffffffffffffffffffffffffff1663268f1153836040518263ffffffff1660e01b81526004018082600581111561107257fe5b60ff168152602001915050602060405180830381600087803b15801561109757600080fd5b505af11580156110ab573d6000803e3d6000fd5b505050506040513d60208110156110c157600080fd5b810190808051906020019092919050505050428260058111156110e057fe5b8473ffffffffffffffffffffffffffffffffffffffff167f9ae5127f6d87e374b5901ce23a9467e504811c54c03dda8741ad44a35a36146660405160405180910390a4505050565b611d69806111368339019056fe60806040526001600d60006101000a81548160ff0219169083151502179055506000601055600060115560014201601355600060145534801561004157600080fd5b50611d18806100516000396000f3fe6080604052600436106101095760003560e01c806383197ef011610095578063e8b5e51f11610064578063e8b5e51f14610330578063efd475ab1461033a578063f06817cf14610351578063f5074f4114610400578063faacf3c41461045157610109565b806383197ef01461027c5780638da5cb5b14610293578063b38854be146102ea578063d85da7b61461030157610109565b80633ccfd60b116100dc5780633ccfd60b14610223578063402d88831461023a57806343c14b2214610244578063590e1ae31461025b5780636a74ef0a1461027257610109565b806312065fe01461010e578063268f11531461013957806328fd10d71461018b57806329c68dc1146101f4575b600080fd5b34801561011a57600080fd5b506101236104aa565b6040518082815260200191505060405180910390f35b34801561014557600080fd5b506101756004803603602081101561015c57600080fd5b81019080803560ff1690602001909291905050506104b2565b6040518082815260200191505060405180910390f35b34801561019757600080fd5b506101da600480360360208110156101ae57600080fd5b81019080803573ffffffffffffffffffffffffffffffffffffffff16906020019092919050505061057d565b604051808215151515815260200191505060405180910390f35b34801561020057600080fd5b5061020961059d565b604051808215151515815260200191505060405180910390f35b34801561022f57600080fd5b50610238610676565b005b61024261084d565b005b34801561025057600080fd5b50610259610b3c565b005b34801561026757600080fd5b50610270610d14565b005b61027a610fe8565b005b34801561028857600080fd5b50610291610fea565b005b34801561029f57600080fd5b506102a861107e565b604051808273ffffffffffffffffffffffffffffffffffffffff1673ffffffffffffffffffffffffffffffffffffffff16815260200191505060405180910390f35b3480156102f657600080fd5b506102ff6110a4565b005b34801561030d57600080fd5b506103166110e6565b604051808215151515815260200191505060405180910390f35b61033861128b565b005b34801561034657600080fd5b5061034f611577565b005b34801561035d57600080fd5b506103666117ed565b604051808c73ffffffffffffffffffffffffffffffffffffffff1673ffffffffffffffffffffffffffffffffffffffff1681526020018b81526020018a81526020018981526020018881526020018781526020018681526020018581526020018460058111156103d257fe5b60ff168152602001831515151581526020018281526020019b50505050505050505050505060405180910390f35b34801561040c57600080fd5b5061044f6004803603602081101561042357600080fd5b81019080803573ffffffffffffffffffffffffffffffffffffffff16906020019092919050505061187a565b005b34801561045d57600080fd5b506104a86004803603608081101561047457600080fd5b81019080803590602001909291908035906020019092919080359060200190929190803590602001909291905050506118ec565b005b600047905090565b60008060009054906101000a900473ffffffffffffffffffffffffffffffffffffffff1673ffffffffffffffffffffffffffffffffffffffff163373ffffffffffffffffffffffffffffffffffffffff161461050d57600080fd5b81600d60016101000a81548160ff0219169083600581111561052b57fe5b021790555042600d60019054906101000a900460ff16600581111561054c57fe5b7faaae373901e745122c2e0925ad006227969c6cd190b7d5ea2fb7fdbd1d955b3560405160405180910390a3919050565b600e6020528060005260406000206000915054906101000a900460ff1681565b60008060009054906101000a900473ffffffffffffffffffffffffffffffffffffffff1673ffffffffffffffffffffffffffffffffffffffff163373ffffffffffffffffffffffffffffffffffffffff16146105f857600080fd5b600d60009054906101000a900460ff1615600d60006101000a81548160ff02191690831515021790555042600d60009054906101000a900460ff1615157f160914ea27c60aa29a5f3a69d74e6069869de36e38939de1e0a66b921d8623d260405160405180910390a3600d60009054906101000a900460ff16905090565b60011515600d60009054906101000a900460ff1615151461069657600080fd5b600260009054906101000a900473ffffffffffffffffffffffffffffffffffffffff1673ffffffffffffffffffffffffffffffffffffffff163373ffffffffffffffffffffffffffffffffffffffff16146106f057600080fd5b6003544710156106ff57600080fd5b60058081111561070b57fe5b600d60019054906101000a900460ff16600581111561072657fe5b141561073157600080fd5b6001600d60016101000a81548160ff0219169083600581111561075057fe5b021790555042600d60019054906101000a900460ff16600581111561077157fe5b7faaae373901e745122c2e0925ad006227969c6cd190b7d5ea2fb7fdbd1d955b3560405160405180910390a342473373ffffffffffffffffffffffffffffffffffffffff167f20734f14d107b526674905e470e35d0a474f9fb996a7bdb034c839c8894524e660405160405180910390a4600260009054906101000a900473ffffffffffffffffffffffffffffffffffffffff1673ffffffffffffffffffffffffffffffffffffffff166108fc479081150290604051600060405180830381858888f1935050505015801561084a573d6000803e3d6000fd5b50565b600260009054906101000a900473ffffffffffffffffffffffffffffffffffffffff1673ffffffffffffffffffffffffffffffffffffffff163373ffffffffffffffffffffffffffffffffffffffff16146108a757600080fd5b600160058111156108b457fe5b600d60019054906101000a900460ff1660058111156108cf57fe5b146108d957600080fd5b6000600854116108e857600080fd5b6009543410156108f757600080fd5b6004546005541061090457fe5b6008600081548092919060019003919050555042600b8190555060008090506009543411156109f857610942600954346119fd90919063ffffffff16565b905061095781346119fd90919063ffffffff16565b6009541461096157fe5b3481111561096b57fe5b3373ffffffffffffffffffffffffffffffffffffffff166108fc829081150290604051600060405180830381858888f193505050501580156109b1573d6000803e3d6000fd5b5042813373ffffffffffffffffffffffffffffffffffffffff167f5c9874487a2258c6bd6dc39a2cfcf7ea944b50b79d9a7152668779687b2ebd8d60405160405180910390a45b42610a0c82346119fd90919063ffffffff16565b3373ffffffffffffffffffffffffffffffffffffffff167f350a09487d622378c6efbda255f996387696319f803a2e53eee64f7aa70be85a60405160405180910390a4610a76610a6582346119fd90919063ffffffff16565b600554611a1490919063ffffffff16565b6005819055506004546005541415610b3957423373ffffffffffffffffffffffffffffffffffffffff167f25630de45a38a90cbca3a2eb35a8197e51b56d6d912581711e5e3773fe77cabc60405160405180910390a36002600d60016101000a81548160ff02191690836005811115610aeb57fe5b021790555042600d60019054906101000a900460ff166005811115610b0c57fe5b7faaae373901e745122c2e0925ad006227969c6cd190b7d5ea2fb7fdbd1d955b3560405160405180910390a35b50565b60011515600d60009054906101000a900460ff16151514610b5c57600080fd5b601354421015610b6b57600080fd5b60006005811115610b7857fe5b600d60019054906101000a900460ff166005811115610b9357fe5b14610b9d57600080fd5b60011515600e60003373ffffffffffffffffffffffffffffffffffffffff1673ffffffffffffffffffffffffffffffffffffffff16815260200190815260200160002060009054906101000a900460ff16151514610bfa57600080fd5b60001515601260003373ffffffffffffffffffffffffffffffffffffffff1673ffffffffffffffffffffffffffffffffffffffff16815260200190815260200160002060009054906101000a900460ff16151514610c5757600080fd5b60116000815480929190600101919050555060011515601260003373ffffffffffffffffffffffffffffffffffffffff1673ffffffffffffffffffffffffffffffffffffffff16815260200190815260200160002060009054906101000a90505050423373ffffffffffffffffffffffffffffffffffffffff167fd7173ce7e4ce6f6d075259ac1a467ab8290db175a2cee8587a663c006b97e12960405160405180910390a36011546010541415610d1257610d11611a30565b5b565b60011515600d60009054906101000a900460ff16151514610d3457600080fd5b60011515600e60003373ffffffffffffffffffffffffffffffffffffffff1673ffffffffffffffffffffffffffffffffffffffff16815260200190815260200160002060009054906101000a900460ff16151514610d9157600080fd5b60046005811115610d9e57fe5b600d60019054906101000a900460ff166005811115610db957fe5b14610dc357600080fd5b600f60003373ffffffffffffffffffffffffffffffffffffffff1673ffffffffffffffffffffffffffffffffffffffff16815260200190815260200160002054471015610e0c57fe5b3373ffffffffffffffffffffffffffffffffffffffff166108fc600f60003373ffffffffffffffffffffffffffffffffffffffff1673ffffffffffffffffffffffffffffffffffffffff168152602001908152602001600020549081150290604051600060405180830381858888f19350505050158015610e91573d6000803e3d6000fd5b5042600f60003373ffffffffffffffffffffffffffffffffffffffff1673ffffffffffffffffffffffffffffffffffffffff168152602001908152602001600020543373ffffffffffffffffffffffffffffffffffffffff167f71e252e33f19f0223f47f27d00910548d26488b9b55cb5b410b75e273152f8d660405160405180910390a46000471415610fe6576000600d60006101000a81548160ff02191690831515021790555042600d60009054906101000a900460ff1615157f160914ea27c60aa29a5f3a69d74e6069869de36e38939de1e0a66b921d8623d260405160405180910390a36003600d60016101000a81548160ff02191690836005811115610f9857fe5b021790555042600d60019054906101000a900460ff166005811115610fb957fe5b7faaae373901e745122c2e0925ad006227969c6cd190b7d5ea2fb7fdbd1d955b3560405160405180910390a35b565b565b6000809054906101000a900473ffffffffffffffffffffffffffffffffffffffff1673ffffffffffffffffffffffffffffffffffffffff163373ffffffffffffffffffffffffffffffffffffffff161461104357600080fd5b600160009054906101000a900473ffffffffffffffffffffffffffffffffffffffff1673ffffffffffffffffffffffffffffffffffffffff16ff5b600160009054906101000a900473ffffffffffffffffffffffffffffffffffffffff1681565b336000806101000a81548173ffffffffffffffffffffffffffffffffffffffff021916908373ffffffffffffffffffffffffffffffffffffffff160217905550565b600060011515600d60009054906101000a900460ff1615151461110857600080fd5b60011515600e60003373ffffffffffffffffffffffffffffffffffffffff1673ffffffffffffffffffffffffffffffffffffffff16815260200190815260200160002060009054906101000a900460ff1615151461116557600080fd5b60001515601560003373ffffffffffffffffffffffffffffffffffffffff1673ffffffffffffffffffffffffffffffffffffffff16815260200190815260200160002060009054906101000a900460ff161515146111c257600080fd5b60146000815480929190600101919050555060011515601560003373ffffffffffffffffffffffffffffffffffffffff1673ffffffffffffffffffffffffffffffffffffffff16815260200190815260200160002060009054906101000a90505050423373ffffffffffffffffffffffffffffffffffffffff167f1db613004119dde2a638b639fba9960c0e6064ee7c2d06f300e41c78920ed6dc60405160405180910390a360145460105414156112835761127c611a9e565b9050611288565b600190505b90565b6000600581111561129857fe5b600d60019054906101000a900460ff1660058111156112b357fe5b146112bd57600080fd5b6000809050600354471061140c576112e0600354476119fd90919063ffffffff16565b90506112f581476119fd90919063ffffffff16565b600354146112ff57fe5b3481111561130957fe5b600081111561139f573373ffffffffffffffffffffffffffffffffffffffff166108fc829081150290604051600060405180830381858888f19350505050158015611358573d6000803e3d6000fd5b5042813373ffffffffffffffffffffffffffffffffffffffff167f566803f6e271b911c84f87631bcd310d6a6510bf8882577a96fc76975703e43160405160405180910390a45b6001600d60016101000a81548160ff021916908360058111156113be57fe5b021790555042600d60019054906101000a900460ff1660058111156113df57fe5b7faaae373901e745122c2e0925ad006227969c6cd190b7d5ea2fb7fdbd1d955b3560405160405180910390a35b6001600e60003373ffffffffffffffffffffffffffffffffffffffff1673ffffffffffffffffffffffffffffffffffffffff16815260200190815260200160002060006101000a81548160ff0219169083151502179055506010600081548092919060010191905055506114da61148c82346119fd90919063ffffffff16565b600f60003373ffffffffffffffffffffffffffffffffffffffff1673ffffffffffffffffffffffffffffffffffffffff16815260200190815260200160002054611a1490919063ffffffff16565b600f60003373ffffffffffffffffffffffffffffffffffffffff1673ffffffffffffffffffffffffffffffffffffffff168152602001908152602001600020819055504261153182346119fd90919063ffffffff16565b3373ffffffffffffffffffffffffffffffffffffffff167f1b0969ce7f5b05c5e0969329a05cdbd7e2e2f6cee33ba26fd6e6bbcff82312cd60405160405180910390a450565b60011515600d60009054906101000a900460ff1615151461159757600080fd5b60011515600e60003373ffffffffffffffffffffffffffffffffffffffff1673ffffffffffffffffffffffffffffffffffffffff16815260200190815260200160002060009054906101000a900460ff161515146115f457600080fd5b6002600581111561160157fe5b600d60019054906101000a900460ff16600581111561161c57fe5b1461162657600080fd5b6000600f60003373ffffffffffffffffffffffffffffffffffffffff1673ffffffffffffffffffffffffffffffffffffffff168152602001908152602001600020541161167257600080fd5b60006010546004548161168157fe5b0490508047101561168e57fe5b3373ffffffffffffffffffffffffffffffffffffffff166108fc829081150290604051600060405180830381858888f193505050501580156116d4573d6000803e3d6000fd5b5042813373ffffffffffffffffffffffffffffffffffffffff167f052f6685df2f773f854b17db1d82e2352e222010daaf8175761f02ef8782c40360405160405180910390a460004714156117ea576000600d60006101000a81548160ff02191690831515021790555042600d60009054906101000a900460ff1615157f160914ea27c60aa29a5f3a69d74e6069869de36e38939de1e0a66b921d8623d260405160405180910390a36003600d60016101000a81548160ff0219169083600581111561179c57fe5b021790555042600d60019054906101000a900460ff1660058111156117bd57fe5b7faaae373901e745122c2e0925ad006227969c6cd190b7d5ea2fb7fdbd1d955b3560405160405180910390a35b50565b6000806000806000806000806000806000600260009054906101000a900473ffffffffffffffffffffffffffffffffffffffff16600c54600354600754600954600854600654600454600d60019054906101000a900460ff16600d60009054906101000a900460ff16479a509a509a509a509a509a509a509a509a509a509a50909192939495969798999a565b6000809054906101000a900473ffffffffffffffffffffffffffffffffffffffff1673ffffffffffffffffffffffffffffffffffffffff163373ffffffffffffffffffffffffffffffffffffffff16146118d357600080fd5b8073ffffffffffffffffffffffffffffffffffffffff16ff5b32600260006101000a81548173ffffffffffffffffffffffffffffffffffffffff021916908373ffffffffffffffffffffffffffffffffffffffff16021790555081600681905550836003819055508260078190555082600881905550611960600654600354611a1490919063ffffffff16565b60048190555061197d600754600454611cca90919063ffffffff16565b60098190555080600c8190555042600a8190555042600260009054906101000a900473ffffffffffffffffffffffffffffffffffffffff1673ffffffffffffffffffffffffffffffffffffffff167ff9f75c99c0e3522cd19ffc66fd6c94989a3f0821d37d5c5bb176aab904c6335d60405160405180910390a350505050565b600082821115611a0957fe5b818303905092915050565b600080828401905083811015611a2657fe5b8091505092915050565b6004600d60016101000a81548160ff02191690836005811115611a4f57fe5b021790555042600d60019054906101000a900460ff166005811115611a7057fe5b7faaae373901e745122c2e0925ad006227969c6cd190b7d5ea2fb7fdbd1d955b3560405160405180910390a3565b600080600160009054906101000a900473ffffffffffffffffffffffffffffffffffffffff1673ffffffffffffffffffffffffffffffffffffffff16600260009054906101000a900473ffffffffffffffffffffffffffffffffffffffff16604051602401808273ffffffffffffffffffffffffffffffffffffffff1673ffffffffffffffffffffffffffffffffffffffff1681526020019150506040516020818303038152906040527fbb9e4247000000000000000000000000000000000000000000000000000000007bffffffffffffffffffffffffffffffffffffffffffffffffffffffff19166020820180517bffffffffffffffffffffffffffffffffffffffffffffffffffffffff83818316178352505050506040518082805190602001908083835b60208310611be95780518252602082019150602081019050602083039250611bc6565b6001836020036101000a0380198251168184511680821785525050505050509050019150506000604051808303816000865af19150503d8060008114611c4b576040519150601f19603f3d011682016040523d82523d6000602084013e611c50565b606091505b50509050600081905042811515600260009054906101000a900473ffffffffffffffffffffffffffffffffffffffff1673ffffffffffffffffffffffffffffffffffffffff167fc1bb1d1e99d1e8d2705ba85717226a3fd9a86e4de2284b00dfe6f33538d5249f60405160405180910390a4809250505090565b600080828481611cd657fe5b049050809150509291505056fea265627a7a723158205f3dbb5d47572cc6e2f59b0137a474a203af4dafb160aa69bff090f8e862cca264736f6c63430005100032a265627a7a72315820bd7b9a026afee50e5cfea274826393f65261bacde16512d21999df779f2c239164736f6c63430005100032",
  "source": "pragma solidity ^0.5.16;\n\nimport \"./common/SafeMath.sol\";\nimport \"./common/Destructible.sol\";\nimport \"./Credit.sol\";\n\n/** @title Peer to peer lending contract.\n * Inherits the Ownable and Destructible contracts.\n */\ncontract PeerToPeerLending is Destructible {\n    /** @dev Usings */\n    // Using SafeMath for our calculations with uints.\n    using SafeMath for uint;\n\n    /** @dev State variables */\n\n    // User structure\n    struct User {\n        // Is the user currently credited.\n        bool credited;\n        // The adress of the active credit.\n        address activeCredit;\n        // Is the user marked as fraudlent.\n        bool fraudStatus;\n        // All user credits.\n        address[] allCredits;\n    }\n\n    // We store all users in a mapping.\n    mapping(address => User) public users;\n\n    // Array of all credits adresses.\n    address[] public credits;\n\n    /** @dev Events */\n    event LogCreditCreated(\n        address indexed _address,\n        address indexed _borrower,\n        uint indexed timestamp\n    );\n    event LogCreditStateChanged(\n        address indexed _address,\n        Credit.State indexed state,\n        uint indexed timestamp\n    );\n    event LogCreditActiveChanged(\n        address indexed _address,\n        bool indexed active,\n        uint indexed timestamp\n    );\n    event LogUserSetFraud(\n        address indexed _address,\n        bool fraudStatus,\n        uint timestamp\n    );\n\n    /** @dev Constructor */\n    function peerToPeerLending() public {}\n\n    /** @dev Credit application function.\n     * @param requestedAmount Requested funding amount in wei.\n     * @param repaymentsCount Requested repayments count.\n     * @param creditDescription The description of the funding.\n     * @return credit Return credit address.\n     * The function publishesh another contract which is the credit contract.\n     * The owner of the new contract is the present contract.\n     */\n    function applyForCredit(\n        uint requestedAmount,\n        uint repaymentsCount,\n        uint interest,\n        bytes32 creditDescription\n    ) public returns (address _credit) {\n        // The user should not have been credited;\n        require(users[msg.sender].credited == false);\n\n        // THe user should not be marked as fraudlent.\n        require(users[msg.sender].fraudStatus == false);\n\n        // Assert there is no active credit for the user.\n        assert(users[msg.sender].activeCredit == address(0));\n\n        // Mark the user as credited. Prevent from reentrancy.\n        users[msg.sender].credited = true;\n\n        // Create a new credit contract with the given parameters.\n        Credit cre = new Credit();\n        cre.credit(\n            requestedAmount,\n            repaymentsCount,\n            interest,\n            creditDescription\n        );\n\n        // Set the user's active credit contract.\n        users[msg.sender].activeCredit = address(cre);\n\n        // Add the credit contract to our list with contracts.\n        credits.push(address(cre));\n\n        // Add the credit to the user's profile.\n        users[msg.sender].allCredits.push(address(cre));\n\n        // Log the credit creation event.\n        emit LogCreditCreated(address(cre), msg.sender, block.timestamp);\n\n        // Return the address of the newly created credit contract.\n        return address(cre);\n    }\n\n    /** @dev Get the list with all credits.\n     * @return credits Returns list of credit addresses.\n     */\n    function getCredits() public view returns (address[] memory) {\n        return credits;\n    }\n\n    /** @dev Get all users credits.\n     * @return users[msg.sender].allCredits Return user credits.\n     */\n    function getUserCredits() public view returns (address[] memory) {\n        return users[msg.sender].allCredits;\n    }\n\n    /** @dev Sets user fraudlent status true.\n     * @param _borrower The user's address.\n     * @return users[_borrower].fraudStatus Boolean of the new fraud status.\n     */\n    function setFraudStatus(address _borrower) external returns (bool) {\n        // Update user fraud status.\n        users[_borrower].fraudStatus = true;\n\n        // Log fraud status.\n        emit LogUserSetFraud(\n            _borrower,\n            users[_borrower].fraudStatus,\n            block.timestamp\n        );\n\n        return users[_borrower].fraudStatus;\n    }\n\n    /** @dev Function to switch active state of a credit.\n     * @param _credit The credit's address.\n     * @param state New state.\n     */\n    function changeCreditState(\n        Credit _credit,\n        Credit.State state\n    ) public onlyOwner {\n        // Call credit contract changeStage.\n        Credit credit = Credit(_credit);\n        credit.changeState(state);\n\n        // Log state change.\n        emit LogCreditStateChanged(address(_credit), state, block.timestamp);\n    }\n\n    /** @dev Function to toggle active state of credit contract.\n     * @param _credit The credit's address.\n     */\n    function changeCreditState(Credit _credit) public onlyOwner {\n        // Call credit contract toggleActive method.\n        Credit credit = Credit(_credit);\n        bool active = credit.toggleActive();\n\n        // Log state change.\n        emit LogCreditActiveChanged(address(credit), active, block.timestamp);\n    }\n}\n",
  "sourcePath": "D:\\Github\\BlockChain\\p2p-LendingBlockChain\\p2p-lending-master\\smart-contracts\\contracts\\PeerToPeerLending.sol",
  "compiler": {
    "name": "solc",
    "version": "0.5.16+commit.9c3226ce.Emscripten.clang"
  },
  "schemaVersion": "3.4.13",
  "updatedAt": "2023-04-18T17:31:00.862Z",
  "networkType": "ethereum",
  "devdoc": {
    "methods": {
      "applyForCredit(uint256,uint256,uint256,bytes32)": {
        "details": "Credit application function.",
        "params": {
          "creditDescription": "The description of the funding.",
          "repaymentsCount": "Requested repayments count.",
          "requestedAmount": "Requested funding amount in wei."
        },
        "return": "credit Return credit address. The function publishesh another contract which is the credit contract. The owner of the new contract is the present contract."
      },
      "changeCreditState(address)": {
        "details": "Function to toggle active state of credit contract.",
        "params": {
          "_credit": "The credit's address."
        }
      },
      "changeCreditState(address,uint8)": {
        "details": "Function to switch active state of a credit.",
        "params": {
          "_credit": "The credit's address.",
          "state": "New state."
        }
      },
      "getCredits()": {
        "details": "Get the list with all credits.",
        "return": "credits Returns list of credit addresses."
      },
      "getUserCredits()": {
        "details": "Get all users credits.",
        "return": "users[msg.sender].allCredits Return user credits."
      },
      "peerToPeerLending()": {
        "details": "Constructor "
      },
      "setFraudStatus(address)": {
        "details": "Sets user fraudlent status true.",
        "params": {
          "_borrower": "The user's address."
        },
        "return": "users[_borrower].fraudStatus Boolean of the new fraud status."
      }
    },
    "title": "Peer to peer lending contract. Inherits the Ownable and Destructible contracts."
  },
  "userdoc": {
    "methods": {}
  }
}